:020000040800F2
:100000000080002081510008410E0008430E0008C6
:10001000450E0008470E0008490E000800000000C9
:10002000000000000000000000000000114F000868
:100030004B0E000800000000B14F000815500008EA
:10004000D1510008D1510008D1510008D151000808
:10005000D1510008D1510008D1510008D1510008F8
:10006000D1510008D1510008D15100084D0E0008AF
:10007000D1510008D15100085D0E00086D0E000836
:100080007D0E000800000000D1510008D151000889
:10009000D1510008D1510008D1510008D1510008B8
:1000A000D1510008D1510008D1510008D1510008A8
:1000B000D1510008D1510008D1510008D151000898
:1000C000D1510008D1510008D1510008D151000888
:1000D000D1510008D15100088D0E0008D1510008FF
:1000E000D1510008D1510008D1510008D151000868
:1000F000D1510008D1510008D15100080000000082
:1001000000000000D151000800000000D15100089B
:10011000D1510008000000009D0E0008AD0E00083F
:10012000D1510008D1510008D1510008D151000827
:10013000D15100080000000000000000D15100086B
:10014000D1510008D151000800000000000000005B
:10015000000000000000000000000000000000009F
:10016000000000000000000000000000D151000865
:10017000D151000800000000000000000000000055
:1001800000000000D1510008000000000000000045
:10019000000000000000000000000000000000005F
:1001A0000000000000000000D1510008D1510008FB
:1001B000D1510008D1510008D151000800000000C1
:1001C00000000000D1510008000000000000000005
:0801D000D1510008D1510008D3
:1001E00053B94AB9002908BF00281CBF4FF0FF319E
:1001F0004FF0FF3000F00CB8ADF1080C6DE904CE03
:1002000005F022F8DDF804E0DDE9022304B07047D0
:10021000704700BF0348044B834202D0034B03B135
:100220001847704710000020100000200000000058
:100230000548064B1B1AD90F01EBA301491002D048
:10024000034B03B118477047100000201000002036
:100250000000000010B5064C237843B9FFF7DAFF21
:10026000044B13B10448AFF300800123237010BD89
:1002700010000020000000004055000808B5054BA4
:100280001BB105490548AFF30080BDE80840FFF702
:10029000CFBF00BF00000000140000204055000840
:1002A00008B50268034B9A4200D008BD01F07CFA01
:1002B000FBE700BF0010004072B6FEE710B594B037
:1002C00006AC38220021204604F083FF0020019074
:1002D000029003900490059002F078FA01230693AF
:1002E0004FF48033079302230D9303220E920F9253
:1002F00055221092119312931393204601F092FA13
:1003000078B90F23019303230293002303930493EB
:10031000059304210DEB010001F03AFD18B914B06A
:1003200010BDFFF7C9FFFFF7C7FF08B501F02CFAB2
:10033000FFF7C4FF00F018F800F0CAF900F002FA65
:1003400000F058FC00F022FC00F026FA00F0DAF889
:1003500000F0C0FB00F07EFB00F0A2FA00F086F88F
:1003600004F020FCFEE70000F0B58BB005AD0024E2
:1003700005940694079408940994314BDA6C42F082
:100380002002DA64DA6C02F020020192019ADA6C3F
:1003900042F00402DA64DA6C02F004020292029A79
:1003A000DA6C42F00102DA64DA6C02F001020392C4
:1003B000039ADA6C42F00202DA64DB6C03F00203A7
:1003C0000493049B22464FF4A0714FF0904002F03A
:1003D0007FF81C4F22464FF40561384602F078F84A
:1003E000082305930694012607962946384601F00E
:1003F00085FF05960694079629464FF0904001F038
:100400007DFF4FF4A0730593069607940894294640
:100410004FF0904001F072FF4FF40563059306968C
:10042000079408942946384601F068FF072305938E
:10043000069407962946044801F060FF0BB0F0BD12
:1004400000100240000800480004004808B50120E0
:1004500004F0C7FBFBE708B5012004F0C2FBFBE793
:1004600008B5012004F0BDFBFBE7000030B591B0FA
:1004700000250F9501210FA804F0BAFB1C4B186052
:100480001C4C0DF1280CA646BEE80F00ACE80F008E
:10049000DEF80030CCF8003029460AA804F087FBCB
:1004A000154B18600DF1140C04F1140EBEE80F008A
:1004B000ACE80F00DEF80030CCF80030294605A883
:1004C00004F075FB0D4B1860EE4604F1280CBCE8F7
:1004D0000F00AEE80F00DCF80030CEF800302946FF
:1004E000684604F064FB064B186011B030BD00BFD5
:1004F0002C0000205855000838000020340000204F
:100500003000002010B58CB0002409940A940B949C
:100510002022214601A804F05CFE2D484FF0A043A4
:1005200003604FF4002343608460C46004610123CE
:10053000436104228261047743770322026280F8D8
:100540002440C462046380F83830C46380F84040BB
:1005500000F04CFD00282BD10023099309A91C4869
:1005600001F086F838BB1B4B019306230293052349
:1005700003937F230493042305930023069301A987
:10058000134800F045FEC8B9134B01930C230293A6
:1005900001A90F4800F03CFE98B9104B01931223BB
:1005A000029301A90A4800F033FE68B90CB010BDEF
:1005B000FFF782FED0E7FFF77FFED4E7FFF77CFE70
:1005C000E2E7FFF779FEE8E7FFF776FEEEE700BF28
:1005D0009C0000200008302E8000501D000180216A
:1005E000F0B59BB004460021159116911791189112
:1005F0001991442204A804F0ECFD2368B3F1A04F44
:1006000001D01BB0F0BD4FF4004304934FF00053F2
:10061000139304A801F000FD002848D1274BDA6CA1
:1006200042F40052DA64DA6C02F400520192019A48
:10063000DA6C42F00402DA64DA6C02F0040202922C
:10064000029ADA6C42F00202DA64DB6C03F0020315
:100650000393039B062315930327169700251795ED
:1006600015AE3146164801F049FE4FF480531593FC
:10067000169717953146134801F040FE1248134B68
:100680000360052343608560C560802303614FF4E8
:10069000807343614FF4806383612023C3610562EB
:1006A00001F054FF30B9084B63659C62A9E7FFF77E
:1006B00003FEB3E7FFF700FEF5E700BF00100240BE
:1006C00000080048000400483C00002008000240E8
:1006D00000B583B01A4B9A6C42F004029A649A6C8B
:1006E00002F004020092009A9A6C42F001029A64AD
:1006F0009B6C03F001030193019B002205210B2059
:1007000002F046F90B2002F053F9002205210E20D9
:1007100002F03EF90E2002F04BF9002205210F20D5
:1007200002F036F90F2002F043F9002205211020D3
:1007300002F02EF9102002F03BF903B05DF804FB43
:100740000010024008B51248124B03604FF4827348
:1007500043604FF4004383604FF4E063C3600223BF
:100760000361012343614FF4007383611823C36164
:1007700000230362436283620722C262036343630E
:1007800002F01AF900B908BDFFF796FDFBE700BFBC
:100790006C0100200030014008B51148114B036086
:1007A0004FF482734360002383604FF4E062C260C1
:1007B00002220261012242614FF40072826108222A
:1007C000C2610362436283620722C26203634363BE
:1007D00002F0F2F800B908BDFFF76EFDFBE700BFBD
:1007E000080100200038004000B58BB000230593BD
:1007F00006930793089309930368254A934205D00B
:10080000244A934224D00BB05DF804FB224B1A6EAD
:1008100042F480521A661A6E02F480520192019AD2
:10082000DA6C42F00102DA64DB6C03F0010302933C
:10083000029BA023059302230693012207920893AB
:100840000523099305A94FF0904001F057FDDAE721
:10085000114B9A6D42F480429A659A6D02F480427F
:100860000392039ADA6C42F00202DA64DB6C03F062
:1008700002030493049B4FF4604305930223069301
:100880000523099305A9054801F038FDBBE700BF22
:1008900000300140003800400010024000040048D1
:1008A00000B585B000230193029303930E480F4ACD
:1008B000026042F22732426083603122C26083616B
:1008C00002F0D2FB50B900230193039301A906481B
:1008D00002F00EFD28B905B05DF804FBFFF7ECFC53
:1008E000F1E7FFF7E9FCF6E7D00100200014004033
:1008F00082B00368B3F1804F04D00E4A93420DD00A
:1009000002B0704703F504339A6D42F001029A6514
:100910009B6D03F001030093009BF1E7064B9A6D7A
:1009200042F002029A659B6D03F002030193019B62
:10093000E6E700BF000400400010024002680E4BD2
:100940009A4200D0704700B583B003F5FE339A6D2C
:1009500042F020029A659B6D03F020030193019BF6
:1009600000220521372002F013F8372002F020F88A
:1009700003B05DF804FB00BF00140040F0B58BB07D
:100980000023059306930793089309930368B3F133
:10099000804F04D02B4A934217D00BB0F0BD03F523
:1009A0000433DA6C42F00102DA64DB6C03F0010319
:1009B0000193019B0223059306930123099305A943
:1009C0004FF0904001F09AFCE7E71F4BDA6C42F0E1
:1009D0000102DA64DA6C02F001020292029ADA6C25
:1009E00042F00402DA64DA6C02F004020392039A21
:1009F000DA6C42F00202DA64DB6C03F00203049367
:100A0000049B1027059702240694099405AE3146ED
:100A10004FF0904001F072FC4FF440730593069440
:100A200000250795089509943146084801F066FCB1
:100A3000059706940795089509943146044801F0F6
:100A40005DFCAAE7000400400010024000080048D6
:100A50000004004800B58BB0002307930893099366
:100A6000009301930293039304930593069318480C
:100A70004FF080420260436083604FF0FF32C260FB
:100A80000361836102F020FBC8B900230793099337
:100A900007A90F4802F02CFCA0B9602300930023A3
:100AA00001930293049304226946094802F082FBF1
:100AB00058B90748FFF762FF0BB05DF804FBFFF77A
:100AC000FBFBE2E7FFF7F8FBE7E7FFF7F5FBF0E7F3
:100AD0006802002000B58BB00023079308930993A8
:100AE000009301930293039304930593069325487F
:100AF000254A026041F63F72426083606322C26011
:100B00000361836102F0E0FA50BB0023079309936D
:100B100007A91C4802F0ECFB28BB602300930022CD
:100B20000192029204926946164802F043FBE8B92A
:100B300004226946134802F03DFBD0B908226946F9
:100B4000104802F037FBB8B90C2269460D4802F094
:100B500031FBA0B90B48FFF711FF0BB05DF804FBA8
:100B6000FFF7AAFBD1E7FFF7A7FBD6E7FFF7A4FB48
:100B7000DEE7FFF7A1FBE1E7FFF79EFBE4E7FFF706
:100B80009BFBE7E71C0200200004004008B5174863
:100B9000174B03604FF4E133436000238360C3606D
:100BA00003610C2242618361C36103624362836219
:100BB00003F09FF870B900210C4803F015F960B9F3
:100BC00000210A4803F035F950B9084803F0EDF860
:100BD00048B908BDFFF770FBEDE7FFF76DFBEFE7E6
:100BE000FFF76AFBF1E7FFF767FBF2E7C8040020B5
:100BF0000038014008B51748174B03604FF4E13344
:100C0000436000238360C36003610C2242618361FF
:100C1000C36103624362836203F06BF870B9002121
:100C20000C4803F0E1F860B900210A4803F001F92B
:100C300050B9084803F0B9F848B908BDFFF73CFBC4
:100C4000EDE7FFF739FBEFE7FFF736FBF1E7FFF7DB
:100C500033FBF2E7340400200044004030B59BB081
:100C6000044600211591169117911891199144226B
:100C700004A804F0AEFA2368664A934204D0664A98
:100C8000934261D01BB030BD0123049304A801F04E
:100C9000C3F900284FD1614B1A6E42F480421A66A4
:100CA0001A6E02F480420092009ADA6C42F001025D
:100CB000DA64DB6C03F001030193019B4FF4C06322
:100CC000159302231693179301231893072319935F
:100CD00015A94FF0904001F011FB5148514B0360B2
:100CE00019234360102383600023C36080220261C4
:100CF000436183612022C261036201F027FCE8B9ED
:100D0000474BE3679C624848484B036018234360A5
:100D100000238360C3608022026143618361C361F9
:100D20004FF48053036201F011FC50B93E4BC4F8FC
:100D300080309C62A6E7FFF7BFFAACE7FFF7BCFA8A
:100D4000DEE7FFF7B9FAF1E70223049304A801F004
:100D500063F9002855D1314B9A6D42F400329A65FF
:100D60009A6D02F400320292029ADA6C42F00102A9
:100D7000DA64DB6C03F001030393039B0C231593EC
:100D8000022316930025179518950723199315A983
:100D90004FF0904001F0B2FA2548264B03601A2329
:100DA00043608560C56080230361456185612023C0
:100DB000C3614FF48053036201F0C8FB20BB1C4B9E
:100DC000C4F880309C621C481C4B03601B234360AA
:100DD000102383600023C36080220261436183612A
:100DE000C361036201F0B2FB88B9134BE3679C62F5
:100DF00000220521262001F0CBFD262001F0D8FDA0
:100E000040E7FFF759FAA6E7FFF756FAD7E7FFF7EB
:100E100053FAEAE700380140004400400010024065
:100E2000D403002044000240740300205800024014
:100E3000140300206C000240B40200201C00024099
:100E4000FEE7FEE7FEE7FEE7FEE7704708B502486B
:100E500001F059FC08BD00BF3C00002008B5024865
:100E600001F051FC08BD00BFD403002008B50248C2
:100E700001F049FC08BD00BF7403002008B502481A
:100E800001F041FC08BD00BF1403002008B5024872
:100E900002F0CAFA08BD00BF3404002008B50248B9
:100EA00001F088FF08BD00BF5C05002008B50248BE
:100EB00001F080FF08BD00BFD001002000B583B065
:100EC0000E4B1A6E42F001021A661A6E02F001020F
:100ED0000092009A9A6D42F080529A659B6D03F0E1
:100EE00080530193019B00220F216FF0010001F05C
:100EF0004FFD01F0F1FC03B05DF804FB001002406F
:100F000030B589B004461D4B9A6D42F010029A65C7
:100F10009B6D03F010030193019B02A903A801F04C
:100F20005DF801F037F8164AA2FB00239B0C013B49
:100F30001448154A026040F2E732C2604360002361
:100F40000361836002F090F8054610B1284609B0AD
:100F500030BD0C4801F0E8FE05460028F6D13620E9
:100F600001F026FD0F2C01D90125EFE700222146D3
:100F7000362001F00DFD054B1C60E7E70010024034
:100F800083DE1B435C0500200010004004000020AD
:100F900010B430300B0A9B0003F00C03C45801F06E
:100FA0001F014FF01F0C0CFA01FC24EA0C0CC2F3D9
:100FB00084628A404CEA0202C2505DF8044B7047DA
:100FC00010B414304B0E9B0003F00403C458C1F35B
:100FD00004514FF0070C0CFA01FC24EA0C0C8A4077
:100FE0004CEA0202C2505DF8044B704730B583B042
:100FF00000230193002800F0FF800446C36D13B363
:1010000023689A6812F0005F05D09A6822F02042A7
:1010100022F03F029A602268936813F0805F1FD12C
:10102000936823F0104323F03F0343F08053936011
:10103000724B1B689B09724AA2FB03239B09013375
:101040005B00019309E0FFF7CBFA0023236684F8E5
:101050005830D5E7019B013B0193019B002BF9D14F
:101060002268936813F0805F40F09280E36D43F054
:101070001003E365236E43F00103236601209368A8
:1010800013F0040300D00123E16D11F0100F40F0C4
:10109000AC80002B40F0A980E36D23F4817343F012
:1010A0000203E365936813F0010F13D14FF0A043DF
:1010B0009B6813F0010300D00123524A926812F09A
:1010C000010F07D133B963684F498A6822F47C1253
:1010D00013438B60627FE36B43EA4233E26813435E
:1010E000A268134394F8242043EA0243012A51D012
:1010F000E26A22B102F47872216B0A431343216839
:10110000CD68424A2A401A43CA602268136923F014
:101110004063616B0B4313612268936813F008030B
:1011200000D001232BBB237F94F83810490041EAFB
:101130008331D36823F4804323F002030B43D3604D
:10114000236963B32268136943F48033136122680F
:10115000D2F8C0306FF30D0321690B43C2F8C030E1
:1011600094F84030012B27D02268136923F0010343
:1011700013616369012B2FD02268136B23F00F03D7
:101180001363E36D23F0030343F00103E36531E0F0
:10119000002074E7A26A013A43EA4243A8E72268C2
:1011A000136923F4803313612268D2F8C0306FF3DF
:1011B0000D03C2F8C030D3E721680B696FF38A03CF
:1011C000626CA56C2A43E56C2A43256D2A431343C0
:1011D00043F001030B61CCE721680B6B23F00F0395
:1011E000226A013A13430B63CBE7E36D43F010032C
:1011F000E365012003B030BD0120FBE708000020BB
:10120000632D3E0500010050000300500740F0FF31
:10121000F0B583B00023019390F85830012B00F013
:101220001C8204460D46012380F85830006883680C
:1012300013F0040F09D0E36D43F02003E3650120B0
:10124000002384F8583003B0F0BD0A684968FFF7FE
:101250009FFE2068836813F0040300D00123866892
:1012600016F0080600D00126002B3ED1002E3CD1FE
:10127000AA68B2F1004F6FD02968FFF7A1FE22687B
:10128000536923F00043536169692268D368C3F34B
:10129000C1035B009940286904286AD0603252F883
:1012A0002070AB4B3B402F6807F0F84C41EA0C0133
:1012B0000B4343F0004342F8203023682869AA69B1
:1012C000603353F8201021F080710A4343F8202046
:1012D000236829692A7F012A48D0603353F82120E6
:1012E00022F00072324343F821202268936813F001
:1012F000010F16D12B68E868D2F8B010C3F31206BC
:1013000021EA060100F018069248F0400340C3F3BA
:1013100012030B43C2F8B030EA688F4B9A4200F0D8
:101320008F802B688D4A134200F08F818C4A92681F
:1013300002F0E0718B48834200F03E818A4883428C
:1013400000F03A818948834200F05C8188488342FA
:1013500000F06A81002073E700222968FFF730FE61
:101360002268536943F0004353618DE74FF00076E4
:10137000B3E7136E116EC1F384612B68C3F31200DF
:1013800078BBC3F38463994233D021684B6E4A6EB5
:10139000C2F384622B68C3F3120078BBC3F3846387
:1013A0009A4233D021688B6E8A6EC2F384622B68B6
:1013B000C3F3120078BBC3F384639A4233D021682D
:1013C000CB6ECA6EC2F384622B68C3F3120078BB83
:1013D000C3F384639A4288D1CB6E23F00043CB667B
:1013E00083E793FAA3F313B1B3FA83F3CBE7202394
:1013F000C9E7136E23F000431366C6E793FAA3F31D
:1014000013B1B3FA83F3CBE72023C9E74B6E23F084
:1014100000434B66C6E793FAA3F313B1B3FA83F321
:10142000CBE72023C9E78B6E23F000438B66C6E72A
:1014300093FAA3F313B1B3FA83F3CBE72023C9E7FD
:1014400020682B68C3F3120626BB9A0E013202F005
:101450001F02092A8CBF00220122002A52D046BB5B
:10146000990E0131890601F0F84176BB9F0E0137D4
:1014700007F01F070122BA401143AEBB9B0E013398
:1014800003F01F0303EB43031B051943AA68FFF78F
:1014900097FD46E793FAA3F24AB1B2FA82F201321B
:1014A00002F01F02092A8CBF00220122D5E7202268
:1014B000F5E793FAA3F131B1B1FA81F1013189066F
:1014C00001F0F841D1E72021F8E793FAA3F24AB1FD
:1014D000B2FA82F2013202F01F024FF0010C0CFA54
:1014E00002F2C9E72022F5E793FAA3F343B1B3FA76
:1014F00083F3013303F01F0303EB43031B05C4E72E
:101500002023F6E7CEB9990E0131890601F0F841A2
:1015100096BB9F0E013707F01F070122BA40114307
:10152000CEBB9B0E013303F01F0303EB43031E3BB3
:101530001B0543F000731943A8E793FAA3F1C9B15F
:10154000B1FA81F10131890601F0F841E0E700BF0D
:1015500000F0FF03FFFF070000007F40000008804D
:1015600000030050000021C31000C090000052C7CB
:10157000000084CB2021E5E793FAA3F24AB1B2FA46
:1015800082F2013202F01F024FF0010C0CFA02F25B
:10159000C5E72022F5E793FAA3F35BB1B3FA83F32F
:1015A000013303F01F0303EB43031E3B1B0543F012
:1015B0000073C0E72023F3E712F4000F7FF4C2AEFC
:1015C0002368B3F1A04F01D0002039E641F40001B7
:1015D000234A936823F0E07319439160214B1B6801
:1015E0009B09214AA2FB03239B09013303EB43031D
:1015F0009B000193019B1BB1019B013B0193F9E708
:1016000000201DE612F0807F7FF4A0AE2268174B09
:101610009A421CD041F08071114A936823F0E07324
:101620001943916000200BE612F4800F11D122685B
:101630000E4B9A420FD041F4800309498A6822F088
:10164000E07213438B600020FAE50020F8E50020EB
:10165000F6E50020F4E50020F2E50220F3E500BF06
:101660000003005008000020632D3E0500010050DB
:1016700090F85820012A00F0818010B49DB00346F4
:10168000012280F858200022189219920068B0F1C7
:10169000A04F38D000220192019A002A36D09268D9
:1016A00012F0040200D00122806810F0040F51D122
:1016B000002A4FD10A68002A31D0314CA26822F4A6
:1016C0006042486893F838C040EA4C300243A26058
:1016D0004FF0A042926812F0010200D00122294886
:1016E000806810F0010F41D1002A41D1244CA2683A
:1016F00022F4716222F00F020868896801430A43EC
:10170000A26000202BE01F4A0192C5E7DA6D42F08B
:101710002002DA65002283F85820012022E01849CF
:101720008A6822F460428A604FF0A042926812F008
:10173000010200D001221349896811F0010F19D16B
:10174000D2B90F498A6822F4716222F00F028A60CE
:10175000002004E0DA6D42F02002DA650120002268
:1017600083F858201DB05DF8044B70470020F6E761
:101770000020F4E70020F2E70020F0E702207047A5
:10178000000300500001005010B5032001F0EEF8F6
:101790000F20FFF7B5FB10B10124204610BD044611
:1017A000FFF78CFBF9E70000034A13680349096857
:1017B0000B441360704700BFA80500200000002004
:1017C000014B1868704700BFA8050020124BDA686B
:1017D00002F00302DB68C3F303130133032A11D0C1
:1017E0000E48B0FBF3F00C4BDB68C3F3062303FB9E
:1017F00000F0094BDB68C3F3416301335B00B0FBCE
:10180000F3F070470648B0FBF3F0034BDB68C3F31B
:10181000062303FB00F0ECE7001002400024F40074
:10182000001BB700002800F04F8270B582B004465C
:10183000036813F0010F37D0A44A936803F00C0338
:10184000D26802F003020C2B23D0082B23D063684C
:10185000B3F5803F4ED0B3F5A02F51D09B4B1A6803
:1018600022F480321A601A6822F480221A606368B7
:10187000002B52D0FFF7A4FF0546944B1B6813F4CE
:10188000003F11D1FFF79CFF401B6428F5D90320CE
:1018900023E2032AD9D18D4B1B6813F4003F03D0F8
:1018A0006368002B00F01282236813F0020F5DD0F2
:1018B000864A936803F00C03D26802F003020C2BF3
:1018C0003AD0042B3AD0E368002B75D07F4A1368D6
:1018D00043F480731360FFF773FF05467B4B1B686F
:1018E00013F4806F5FD1FFF76BFF401B0228F5D91F
:1018F0000320F2E1754A136843F480331360B6E7BE
:1019000003F18043A3F53C331A6842F480221A6045
:101910001A6842F480321A60A9E7FFF751FF0546C2
:101920006A4B1B6813F4003FBED0FFF749FF401B12
:101930006428F5D90320D0E1022AC2D1634B1B6889
:1019400013F4806F03D0E368002B00F0C1815F4A7D
:10195000536823F0FE43216943EA016353605C4B03
:101960001868FFF7CDFA002840F0B481236813F01F
:10197000080F4CD063699BB3544AD2F8943043F0BB
:101980000103C2F89430FFF71BFF05464F4BD3F815
:10199000943013F0020F3AD1FFF712FF401B0228D8
:1019A000F4D9032099E1494A536823F0FE432169A1
:1019B00043EA01635360D9E7444A136823F4807310
:1019C0001360FFF7FDFE0546404B1B6813F4806F64
:1019D000CCD0FFF7F5FE401B0228F5D903207CE1AF
:1019E0003A4AD2F8943023F00103C2F89430FFF75A
:1019F000E7FE0546354BD3F8943013F0020F06D0BE
:101A0000FFF7DEFE401B0228F4D9032065E12368BE
:101A100013F0040F00F081802C4B9B6D13F0805F5E
:101A200036D12A4B9A6D42F080529A659B6D03F035
:101A300080530193019B0125264B1B6813F4807F83
:101A400028D0A368012B39D0052B45D01F4BD3F8E4
:101A5000902022F00102C3F89020D3F8902022F0C9
:101A60000402C3F89020A368002B43D0FFF7A8FE20
:101A70000646164BD3F8903013F0020F4CD1FFF707
:101A80009FFE801B41F288339842F2D9032024E163
:101A90000025D1E70F4A136843F480731360FFF702
:101AA0008FFE06460B4B1B6813F4807FC9D1FFF7EE
:101AB00087FE801B0228F5D903200EE1034AD2F8E5
:101AC000903043F00103C2F89030CCE700100240A0
:101AD0000400002000700040884BD3F8902042F0B2
:101AE0000402C3F89020D3F8902042F00102C3F81A
:101AF0009020B8E7FFF764FE0646804BD3F890309D
:101B000013F0020F08D0FFF75BFE801B41F2883311
:101B10009842F2D90320E0E0E5B9236813F0200FE2
:101B200035D0A369E3B1754AD2F8983043F0010388
:101B3000C2F89830FFF744FE0546704BD3F8983052
:101B400013F0020F23D1FFF73BFE401B0228F4D90C
:101B50000320C2E0694A936D23F080539365DCE76C
:101B6000664AD2F8983023F00103C2F89830FFF7A4
:101B700027FE0546614BD3F8983013F0020F06D0CC
:101B8000FFF71EFE401B0228F4D90320A5E0E369FD
:101B9000002B00F0A180594A926802F00C020C2A36
:101BA00064D0022B13D0554A136823F0807313605E
:101BB000FFF706FE0446514B1B6813F0007F4ED022
:101BC000FFF7FEFD001B0228F5D9032085E04B4AF4
:101BD000136823F080731360FFF7F2FD0546474B4F
:101BE0001B6813F0007F06D0FFF7EAFD401B0228B8
:101BF000F5D9032071E0414AD36841491940236A6D
:101C0000606A013843EA0013A06A43EA0023206BAC
:101C10004008013843EA4053606B4008013843EA0A
:101C20004063E06A43EAC0631943D160136843F03C
:101C300080731360D36843F08073D360FFF7C0FDF7
:101C400004462E4B1B6813F0007F06D1FFF7B8FD4A
:101C5000001B0228F5D903203FE000203DE0274A81
:101C6000D168284B0B40D360002036E0012B36D0E2
:101C7000224BDB6803F00301226A914231D103F069
:101C8000F002616A0139B2EB011F2CD103F4FE426C
:101C9000A16AB2EB012F28D103F07842E16AB2EBDE
:101CA000C16F24D103F4C001226B5208013AB1EB99
:101CB000425F1ED103F0C063626B5208013AB3EB7E
:101CC000426F18D1002008E001207047012004E095
:101CD000012002E0012000E0002002B070BD0120E0
:101CE000FBE70120F9E70120F7E70120F5E70120F4
:101CF000F3E70120F1E70120EFE700BF0010024009
:101D00000C809F01FCFFEEFE1E4B9B6803F00C0352
:101D1000042B33D01B4B9B6803F00C03082B2FD0F4
:101D2000184B9B6803F00C030C2B01D0002070476C
:101D3000144BDA6802F00302DB68C3F303130133C8
:101D4000032A11D01048B0FBF3F00E4BDB68C3F34D
:101D5000062303FB00F00B4BDB68C3F34163013345
:101D60005B00B0FBF3F070470848B0FBF3F0054BA5
:101D7000DB68C3F3062303FB00F0ECE7024870477F
:101D800002487047001002400024F400001BB70016
:101D9000002800F0E680F8B50C460546744B1B6839
:101DA00003F00F038B420BD2714A136823F00F0329
:101DB0000B431360136803F00F038B4240F0D38092
:101DC0002E6816F001065FD06B68032B2FD0022B14
:101DD0004DD0684B1B6813F4806F00F0C680FFF78E
:101DE00093FF654B98424DD9624A936823F0F00304
:101DF00043F08003936080265E4A936823F00303D8
:101E000069680B439360FFF7DBFC0746594B9B68FF
:101E100003F00C036A68B3EB820F35D0FFF7D0FCF8
:101E2000C01B41F288339842F0D9032078E0514B2F
:101E30001B6813F0007F01D1012071E0FFF7C6FCA1
:101E40004D4B98421AD94B4B9B6813F0F00F05D0BD
:101E50002E6816F00206CFD0AB688BB9454A93685E
:101E600023F0F00343F0800393608026C4E7414BE6
:101E70001B6813F4003FB2D1012051E00026BBE7FC
:101E80000026B9E70026B7E72B6813F0020F48D009
:101E900013F0040F04D0374A936843F4E06393606F
:101EA0002B6813F0080F06D0324A936823F47C5352
:101EB00043F4E06393602F4A936823F0F003A9682A
:101EC0000B4393602A4B1B6803F00F03A34230D8E7
:101ED0002B6813F0040F06D0264A936823F4E063BE
:101EE000E9680B4393602B6813F0080F07D0214A71
:101EF000936823F46053296943EAC1039360FFF7B1
:101F000003FF1C4B9B68C3F303131C4AD35C03F011
:101F10001F03D8401A4B18601A4B1868FEF7F0FFE1
:101F2000F8BD802ECED1134A936823F0F00393605E
:101F3000C8E70F4A136823F00F0323431360FFF72A
:101F40003FFC06460A4B1B6803F00F03A342BFD0B9
:101F5000FFF736FC801B41F288339842F2D9032008
:101F6000DEE7012070470120DAE70120D8E700BF53
:101F7000002002400010024000B4C404F0550008E4
:101F80000800002004000020014B1868704700BFC3
:101F90000800002008B5FFF7F7FF054B9B68C3F367
:101FA0000223044AD35C03F01F03D84008BD00BFDE
:101FB00000100240E855000808B5FFF7E5FF054BA3
:101FC0009B68C3F3C223044AD35C03F01F03D840C9
:101FD00008BD00BF00100240E85500080F23036051
:101FE0000B4B9A6802F0030242609A6802F0F0021A
:101FF00082609A6802F4E062C2609B68DB0803F4C6
:10200000E0630361034B1B6803F00F030B60704731
:102010000010024000200240F0B583B0044603687F
:1020200013F4002F69D0AE4B9B6D13F0805F1ED16F
:10203000AB4B9A6D42F080529A659B6D03F08053D2
:102040000193019B0126A74A136843F48073136030
:10205000FFF7B6FB0546A34B1B6813F4807F08D13E
:10206000FFF7AEFB401B0228F5D9032502E000264E
:10207000E9E7002545BB9A4BD3F8903013F4407341
:1020800018D0226C9A4212D0954AD2F8903023F49C
:102090004073D2F8901041F48031C2F89010D2F819
:1020A000901021F48031C2F89010C2F8903013F0F3
:1020B000010F10D145B98A4AD2F8903023F4407309
:1020C000216C0B43C2F89030C6B1854A936D23F062
:1020D0008053936512E0FFF773FB0746804BD3F8FC
:1020E000903013F0020FE5D1FFF76AFBC01B41F2FD
:1020F00088339842F2D90325DCE70025236813F0E2
:10210000010F08D0764AD2F8883023F003036168C3
:102110000B43C2F88830236813F0020F08D0704ACE
:10212000D2F8883023F00C03A1680B43C2F8883042
:10213000236813F0040F08D0694AD2F8883023F0DE
:102140003003E1680B43C2F88830236813F0080FAE
:1021500008D0634AD2F8883023F0C00321690B43CA
:10216000C2F88830236813F0200F08D05C4AD2F8F8
:10217000883023F4406361690B43C2F888302368D8
:1021800013F0400F08D0564AD2F8883023F4405359
:10219000A1690B43C2F88830236813F0800F08D080
:1021A0004F4AD2F8883023F44043E1690B43C2F828
:1021B0008830236813F4807F08D0494AD2F88830E9
:1021C00023F44033216A0B43C2F88830236813F4A8
:1021D000007F08D0424AD2F8883023F44023616A55
:1021E0000B43C2F88830236813F4806F0CD03C4A4C
:1021F000D2F8883023F44013A16A0B43C2F8883028
:10220000A36AB3F5801F57D0236813F4006F0CD076
:10221000334AD2F8883023F44003E16A0B43C2F812
:102220008830E36AB3F5800F4BD0236813F4805FE6
:102230000CD02B4AD2F8883023F04073216B0B432B
:10224000C2F88830236BB3F1807F3FD0236813F44A
:10225000005F0CD0224AD2F8883023F04063616BD3
:102260000B43C2F88830636BB3F1006F33D023683F
:1022700013F4804F0CD01A4AD2F8883023F0406310
:10228000A16B0B43C2F88830A36BB3F1006F2BD066
:10229000236813F4004F0CD0114AD2F8883023F091
:1022A0004053E16B0B43C2F88830E36BB3F1805FBE
:1022B0001FD0284603B0F0BDD36843F48013D36029
:1022C000A2E7D36843F48013D360AEE7D36843F446
:1022D0008013D360BAE7D36843F48013D360C6E7B2
:1022E0000010024000700040D36843F48013D360B4
:1022F000CEE7D36843F48033D360DAE7F0B583B038
:10230000002362E085685E000324B44025EA0405EA
:10231000CC68B4402C438460456825EA0C054C68C1
:10232000C4F300149C402C4344605FE0DD08083592
:1023300050F8254003F0070C4FEA8C0C4FF00F0EBD
:102340000EFA0CFE24EA0E0E0C6904FA0CF444EAB0
:102350000E0440F8254060E0052400E0002404FA63
:102360000EF42C430CF1020C554D45F82C40554C05
:10237000A568D44325EA02064F6817F4801F01D0F0
:1023800042EA05064F4DAE60ED6804EA05064F6867
:1023900017F4001F01D042EA05064A4DEE606D6851
:1023A00004EA05064F6817F4003F01D042EA05062B
:1023B000444D6E602D682C404E6816F4803F01D06D
:1023C00042EA05043F4A146001330A6832FA03F412
:1023D00074D04FF0010C0CFA03FC1CEA0202F3D09B
:1023E0004C6804F00304013C012C8BD94C6804F0C8
:1023F0000304032C0CD0C4685D004FF0030C0CFAEE
:1024000005FC24EA0C0C8C68AC4044EA0C04C46063
:102410004C6804F00304022C88D004684FEA430E91
:102420004FF0030C0CFA0EFC24EA0C0C4C6804F080
:10243000030404FA0EF444EA0C0404604C6814F437
:10244000403FC1D0204C256E45F001052566246E25
:1024500004F001040194019C4FEA930C0CF1020575
:10246000174C54F8255003F0030E4FEA8E0E0F243C
:1024700004FA0EF425EA0405B0F1904F3FF46EAF74
:10248000124CA04212D004F58064A04210D004F592
:102490008064A0420ED004F58064A0420CD004F504
:1024A0008064A0423FF458AF062458E7012456E761
:1024B000022454E7032452E7042450E703B0F0BD9C
:1024C00000000140000401400010024000040048E8
:1024D0000AB18161704781627047000003680C4A4D
:1024E000934213D80B49DBB2083B0B4AA2FB0323F0
:1024F000426C22F003020A448264084AC264C3F3B5
:102500000413012202FA03F3036570470449EAE762
:102510000704024000080240CDCCCCCC8008024029
:10252000200802400379074A1A4492004265064A8D
:102530008265013B03F01F03012202FA03F3C36526
:10254000704700BF3F82001040090240002859D068
:1025500010B5044602682C4B9A423BD82B4B1344CF
:102560002B49A1FB03131B099B004364294B036404
:10257000022384F8253011686FF30E11A368E06818
:1025800003432069034360690343A0690343E0698F
:102590000343206A03430B4313602046FFF79EFF6B
:1025A000A368B3F5804F20D0A36C22791A60E36C46
:1025B000226D5A606368013B032B19D900236365C0
:1025C000A365E3650020E063012384F8253084F8E7
:1025D000240010BD104B13440D49A1FB03131B092C
:1025E0009B0043640D4B0364C2E700236360DBE799
:1025F0002046FFF797FF636D00221A60A36DE26D1E
:102600005A60DFE70120704707040240F8FFFDBF72
:10261000CDCCCCCC00000240F8FBFDBF0004024052
:10262000034690F82520022A09D00422C263012023
:10263000012283F82520002283F8242070470168B6
:102640000A6822F00E020A60816C0A6822F4807225
:102650000A6001680A6822F001020A60426C02F016
:102660001F01006C01228A404260DA6C196D5160D2
:102670005A6D42B1116821F4807111609A6DD96D63
:1026800051600020D4E70020D2E708B590F825304B
:10269000022B09D00423C363012380F825300022D4
:1026A00080F82420184608BD0268136823F00E0342
:1026B00013600268136823F001031360826C1368CF
:1026C00023F480731360436C03F01F02016C012339
:1026D00093404B60C36C026D5A60436D33B11A680E
:1026E00022F480721A60836DC26D5A60012380F8F3
:1026F0002530002380F82430836B13B198470020E5
:10270000D1E70020CFE738B5036C19680468256865
:10271000436C03F01F0304229A400A4215D015F0BF
:10272000040F12D0236813F0200F03D1236823F085
:1027300004032360436C03F01F02016C04239340E5
:102740004B60036B03B1984738BD02229A400A429E
:102750001CD015F0020F19D0236813F0200F06D1FA
:10276000236823F00A032360012380F82530436C9B
:1027700003F01F02016C022393404B60002380F89A
:102780002430C36A002BDFD09847DDE7082202FA25
:1027900003F30B42D8D015F0080FD5D0236823F0EF
:1027A0000E032360436C03F01F03016C012202FA45
:1027B00003F34B60C26380F82520002380F82430A7
:1027C000436B002BC0D09847BEE70000002836D1ED
:1027D0003E4B1B6803F4C063B3F5806F08D03B4ADF
:1027E000D2F8803023F48073C2F880300020704724
:1027F000364AD2F8803023F48073C2F880301368F0
:1028000023F4C06343F400731360314B1B6832221E
:1028100002FB03F32F4AA2FB03239B0C013300E0CE
:10282000013B2A4A526912F4806F01D0002BF7D184
:10283000264B5B6913F4806F44D100207047B0F5DC
:10284000007F08D0214A136823F4C06343F48063F7
:102850001360002070471D4B1B6803F4C063B3F581
:10286000806F08D0194AD2F8803043F48073C2F8E0
:10287000803000207047154AD2F8803043F48073CE
:10288000C2F88030136823F4C06343F4007313600C
:102890000F4B1B68322202FB03F30E4AA2FB0323F9
:1028A0009B0C013300E0013B084A526912F4806F2F
:1028B00001D0002BF7D1054B5B6913F4806F03D176
:1028C00000207047032070470320704700700040CD
:1028D0000800002083DE1B43024A936843F48043D0
:1028E0009360704700700040002807DB00F01F0273
:1028F000400901239340024A42F82030704700BF4C
:1029000000E100E0002808DB0901C9B200F16040E5
:1029100000F5614080F80013704700F00F000901D6
:10292000C9B2014B1954704714ED00E000B500F036
:102930000700C0F1070CBCF1040F28BF4FF0040CD6
:10294000031D062B0FD9C31E4FF0FF3E0EFA0CF0ED
:1029500021EA000199400EFA03FE22EA0E0241EA42
:1029600002005DF804FB0023EEE70000074AD3688D
:1029700023F4E0631B041B0C000200F4E06003433B
:1029800043F0BF6343F40033D360704700ED00E0D1
:1029900010B50446054BD868C0F30220FFF7C6FF08
:1029A00001462046FFF7AEFF10BD00BF00ED00E07E
:1029B00008B5FFF799FF08BD00286FD010B5044691
:1029C000436A33B94368B3F5827F05D00023C361FE
:1029D00002E00023036143610023A36294F85D30A9
:1029E000002B52D0022384F85D302268136823F054
:1029F00040031360E368B3F5E06F4CD90022B3F5F0
:102A0000706F04D0B3F5E06F01D00023A362636858
:102A100003F48273A16801F404410B43216901F0BE
:102A200002010B43616901F001010B43A16901F44B
:102A300000710B43E16901F038010B43216A01F099
:102A400080010B43A16A01F4005120680B4303602D
:102A5000638B03F00403616A01F010010B43616BA7
:102A600001F008010B43E16801F470610B43216838
:102A700013434B602268D36923F40063D3610020C1
:102A80002066012384F85D3010BD84F85C30204658
:102A9000FDF7AAFEA6E74FF48052B0E70120704789
:102AA00030B4026A036A23F0010303624468836955
:102AB00023F4803323F073030D681D4322F00202D8
:102AC0008B6813431C4A90420FD002F5006290427B
:102AD0000BD002F54062904207D002F5806290422E
:102AE00003D002F58062904205D123F00803CA6842
:102AF0001A4322F00403104A90420FD002F50062FC
:102B000090420BD002F54062904207D002F58062FD
:102B1000904203D002F58062904205D124F44074C3
:102B20004A6922438C691443446085614A68426360
:102B3000036230BC704700BF002C014030B4036A10
:102B4000026A22F4807202624468C26922F480320E
:102B500022F073020D68154323F400738A6843EA78
:102B60000223184A904203D002F50062904206D137
:102B700023F40063CA6843EA022323F48063114A02
:102B800090420FD002F5006290420BD002F54062F5
:102B9000904207D002F58062904203D002F5806235
:102BA000904207D124F440524C6942EA04128C69E5
:102BB00042EA04144460C5614A68C263036230BCDF
:102BC000704700BF002C014030B4036A026A22F44F
:102BD000805202624468C26922F0807222F4E642A6
:102BE0000D6842EA052223F400538D6843EA053359
:102BF000174DA84203D005F50065A84206D123F47D
:102C00000043CD6843EA053323F48043104DA842C6
:102C10000FD005F50065A8420BD005F54065A84228
:102C200007D005F58065A84203D005F58065A84268
:102C300007D124F4404C4C694CEA841C8C694CEA62
:102C400084144460C2614A680264036230BC704705
:102C5000002C014030B4036A026A22F4803202621E
:102C60004468026D22F4803222F070020D68154330
:102C700023F400338A6843EA02430F4A90420FD09C
:102C800002F5006290420BD002F54062904207D0FC
:102C900002F58062904203D002F58062904204D136
:102CA00024F480344A6944EA0224446005654A6891
:102CB0008264036230BC7047002C014030B4036A68
:102CC000026A22F4801202624468026D22F080726D
:102CD00022F4E0420D6842EA052223F400138D68D5
:102CE00043EA05530F4DA8420FD005F50065A842F1
:102CF0000BD005F54065A84207D005F58065A842D0
:102D000003D005F58065A84204D124F480244D69E0
:102D100044EA8524446002654A68C264036230BCA8
:102D2000704700BF002C014090F83D30012B32D19C
:102D3000022380F83D300268D36843F00103D3607A
:102D40000368184A934218D0B3F1804F15D0A2F50A
:102D50009432934211D002F5806293420DD002F575
:102D60009632934209D002F54062934205D01A6828
:102D700042F001021A600020704799680A4A0A402E
:102D8000062A0AD0B2F5803F09D01A6842F0010243
:102D90001A60002070470120704700207047002013
:102DA000704700BF002C01400700010070477047CA
:102DB0007047704770B505460368DE681C6914F0FB
:102DC000020F10D016F0020F0DD06FF002021A6140
:102DD0000123037703689B6913F0030F7CD0FFF78F
:102DE000E6FF00232B7714F0040F12D016F0040F27
:102DF0000FD02B686FF004021A6102232B772B6827
:102E00009B6913F4407F6DD02846FFF7D0FF002365
:102E10002B7714F0080F12D016F0080F0FD02B6884
:102E20006FF008021A6104232B772B68DB6913F01B
:102E3000030F5ED02846FFF7BAFF00232B7714F06C
:102E4000100F12D016F0100F0FD02B686FF0100279
:102E50001A6108232B772B68DB6913F4407F4FD06E
:102E60002846FFF7A4FF00232B7714F0010F02D0B0
:102E700016F0010F4BD114F4025F02D016F0800F50
:102E80004DD114F4807F02D016F0800F4FD114F092
:102E9000400F02D016F0400F51D114F0200F02D095
:102EA00016F0200F53D114F4801F02D016F4801FA7
:102EB00055D114F4001F02D016F4001F57D114F49A
:102EC000800F02D016F4800F59D114F4000F02D0F5
:102ED00016F4000F5BD170BDFFF768FF2846FFF7BF
:102EE00067FF7EE72846FFF761FF2846FFF760FF90
:102EF0008DE72846FFF75AFF2846FFF759FF9CE762
:102F00002846FFF753FF2846FFF752FFABE72B6831
:102F10006FF001021A612846FDF7C2F9ABE72B6892
:102F20006FF402521A61284600F02DFAA9E72B68C7
:102F30006FF480721A61284600F026FAA7E72B6822
:102F40006FF040021A612846FFF733FFA5E72B68B0
:102F50006FF020021A61284600F014FAA3E72B68EC
:102F60006FF480121A61284600F00FFAA1E72B686F
:102F70006FF400121A61284600F008FA9FE72B68E8
:102F80006FF480021A61284600F001FA9DE72B6871
:102F90006FF400021A61284600F0FAF99BE700007E
:102FA0000368304A90420ED0B0F1804F0BD0A2F5AA
:102FB0009432904207D002F58062904203D002F52D
:102FC0009632904203D123F070034A681343254A96
:102FD00090421AD0B0F1804F17D0A2F594329042AF
:102FE00013D002F5806290420FD002F596329042E3
:102FF0000BD002F54062904207D002F58062904209
:1030000003D002F58062904203D123F44073CA6872
:10301000134323F080034A69134303608B68C36240
:103020000B6883620F4B98420FD003F50063984200
:103030000BD003F54063984207D003F580639842B4
:1030400003D003F58063984201D10B690363012328
:103050004361036913F0010F03D0036923F00103F7
:1030600003617047002C014060B310B5044690F82E
:103070003D3013B3022384F83D30214651F8040B50
:10308000FFF78EFF012384F8483084F83E3084F83F
:103090003F3084F8403084F8413084F8423084F87E
:1030A000433084F8443084F8453084F8463084F85E
:1030B000473084F83D30002010BD80F83C30FDF7EB
:1030C0003DFCD7E70120704760B310B5044690F887
:1030D0003D3013B3022384F83D30214651F8040BF0
:1030E000FFF75EFF012384F8483084F83E3084F80F
:1030F0003F3084F8403084F8413084F8423084F81E
:10310000433084F8443084F8453084F8463084F8FD
:10311000473084F83D30002010BD80F83C30FDF78A
:10312000E7FBD7E70120704730B4036A026A22F058
:10313000100202624468826922F0807222F4E64240
:103140000D6842EA052223F020038D6843EA051347
:10315000174DA84203D005F50065A84206D123F01B
:103160008003CD6843EA051323F04003104DA842C5
:103170000FD005F50065A8420BD005F54065A842C3
:1031800007D005F58065A84203D005F58065A84203
:1031900007D124F4406C4C694CEA840C8C694CEAED
:1031A0008404446082614A688263036230BC704771
:1031B000002C014038B590F83C30012B00F0958090
:1031C00004460D46012380F83C30142A00F2888022
:1031D000DFE802F00B8686861F8686863486868622
:1031E000488686865D86868671000068FFF758FCF3
:1031F0002268936943F0080393612268936923F07E
:10320000040393612268936929690B439361002049
:1032100067E00068FFF788FF2268936943F4006362
:1032200093612268936923F48063936122689369B0
:10323000296943EA01239361002052E00068FFF707
:103240007DFC2268D36943F00803D3612268D36907
:1032500023F00403D3612268D36929690B43D36146
:1032600000203EE00068FFF7AFFC2268D36943F41A
:103270000063D3612268D36923F48063D361226839
:10328000D369296943EA0123D361002029E000685A
:10329000FFF7E0FC2268136D43F008031365226812
:1032A000136D23F0040313652268136D29690B4322
:1032B0001365002015E00068FFF700FD2268136D1C
:1032C00043F4006313652268136D23F48063136570
:1032D0002268136D296943EA01231365002000E089
:1032E0000120002384F83C3038BD0220FCE70000B8
:1032F00090F83C20012A40D030B40346012280F8E7
:103300003C20022280F83D200068426884681C4D01
:10331000A84203D005F50065A84203D122F470024B
:103320004D682A4322F0007222F070020D682A4391
:1033300042601A681248824212D0B2F1804F0FD018
:10334000A0F5943082420BD000F58060824207D015
:1033500000F59630824203D000F54060824204D1ED
:1033600024F08004896821439160012283F83D2084
:10337000002083F83C0030BC70470220704700BF3B
:10338000002C014070477047704770477047704786
:103390007047026852E8003F23F4907342E800311E
:1033A0000029F6D1026802F1080353E8003F23F038
:1033B000805323F00103083242E800310029F1D1A3
:1033C000C36E012B06D02023C0F88C300023C366C7
:1033D00043677047026852E8003F23F0100342E859
:1033E00000310029F6D1EEE7704708B5026852E8CF
:1033F000003F23F0400342E800310029F6D12023AA
:10340000C0F8883000238367FFF7EEFF08BD7047E0
:1034100008B5806A0023A0F85E30A0F85630FFF7A8
:10342000F6FF08BD7047000070B504460268D36916
:103430001068916840F60F0C13EA0C0F0DD113F0D1
:10344000200F10D010F0200F02D111F0805F0AD0B1
:10345000636F93B3204698472FE09D4D0D402DD1CB
:103460009C4E30422AD1E56E012D00F0C08013F44D
:10347000801F03D011F4800F40F06C8113F0800F97
:1034800007D010F0800F40F06C8111F4000F40F075
:10349000688113F0400F03D010F0400F40F06881B6
:1034A00013F4000F03D010F0804F40F0658113F04B
:1034B000807F02D00028C0F2638170BD13F0010F3D
:1034C00009D010F4807F06D001261662D4F890202F
:1034D0003243C4F8902013F0020F0BD011F0010F0B
:1034E00008D0226802261662D4F8902042F0040226
:1034F000C4F8902013F0040F0BD011F0010F08D086
:10350000226804261662D4F8902042F00202C4F821
:10351000902013F0080F0BD010F0200F00D13DB118
:10352000226808251562D4F890202A43C4F8902018
:1035300013F4006F0CD010F0806F09D022684FF4A4
:1035400000651562D4F8902042F02002C4F8902063
:10355000D4F89020002AB0D013F0200F09D010F03A
:10356000200F02D111F0805F03D0636F0BB12046B2
:103570009847D4F8902023689B6813F0400F02D13D
:1035800012F0280F2CD02046FFF703FF23689B681A
:1035900013F0400F20D0226802F1080353E8003FE7
:1035A00023F04003083242E800310029F3D1D4F877
:1035B00080306BB1484A9A63D4F88000FFF765F811
:1035C00000283FF47AAFD4F88000836B984774E703
:1035D0002046FFF71CFF70E72046FFF718FF6CE757
:1035E0002046FFF714FF0023C4F8903065E713F07E
:1035F000100F3FF43CAF10F0100F3FF438AF102322
:10360000136223689B6813F0400F67D0D4F88010D2
:103610000A6853689BB2002B4AD0B4F85C00984209
:1036200046D9A4F85E300B681B6813F0200F32D126
:10363000226852E8003F23F4807342E800310029F9
:10364000F6D1226802F1080353E8003F23F001039A
:10365000083242E800310029F3D1226802F1080360
:1036600053E8003F23F04003083242E800310029CC
:10367000F3D12023C4F88C300023E366226852E89B
:10368000003F23F0100342E800310029F6D1D4F8BE
:103690008000FEF7C5FF02232367B4F85C10B4F87E
:1036A0005E309BB2C91A89B22046FFF7BBFE04E721
:1036B000B4F85C1099427FF400AF136813F0200F48
:1036C0003FF4FBAE022323672046FFF7ABFEF4E690
:1036D000010000102001000411340008B4F85C104F
:1036E000B4F85E309BB2C91A89B2B4F85E309BB2AE
:1036F000002B3FF4E2AE00293FF4DFAE226852E82F
:10370000003F23F4907342E800300028F6D122688D
:1037100002F1080353E8003F23F0805323F0010334
:10372000083242E800300028F1D12023C4F88C3060
:103730000023E3666367226852E8003F23F010032A
:1037400042E800300028F6D1022323672046FFF725
:1037500069FEB2E64FF480131362204600F022FBAC
:10376000ABE6A36F002B3FF4A8AE20469847A4E633
:103770002046FFF73AFEA0E6204600F015FB9CE647
:10378000204600F010FB98E670B504468368026995
:10379000134342691343C2691343016808688A4AA4
:1037A00002401A430A602268536823F44053E168D8
:1037B0000B435360A1692268844B9A4201D0236A6B
:1037C0001943936823F06E4323F430630B439360F3
:1037D0002268D36A23F00F03616A0B43D362236824
:1037E0007B4A934223D07B4A934234D07A4A934215
:1037F0004AD07A4A934259D0744A934268D01022F0
:1038000072498B4200F09580E069B0F5004F00F0FE
:10381000D080082A00F24281DFE812F0100129016D
:103820000E0140012C014001400140012F0102F531
:103830005842D2F8882002F00302032A09D8DFE8B0
:1038400002F002045C060122DAE70422D8E708222B
:10385000D6E71022D4E702F5E632D2F8882002F04B
:103860000C020C2A0ED8DFE802F0070D0D0D090D31
:103870000D0D4A0D0D0D0B000022C1E70422BFE71C
:103880000822BDE71022BBE702F5E432D2F8882017
:1038900002F03002202A34D004D8A2B3102A34D146
:1038A0000422ADE7302A32D10822A9E702F5E2323C
:1038B000D2F8882002F0C002802A2AD004D852B35D
:1038C000402A2AD104229BE7C02A28D1082297E760
:1038D00002F5C832D2F8882002F44062B2F5006FD7
:1038E0001FD005D8FAB1B2F5806F1ED1042287E748
:1038F000B2F5406F1BD1082282E7022280E7022244
:103900007EE702227CE700227AE7102278E7102285
:1039100076E7022274E7002272E7102270E7102295
:103920006EE702226CE700226AE7102268E71022A5
:1039300066E7082A00F2A480DFE802F008A210A2DD
:103940000DA2A2A205004FF4004008E0FEF722FB02
:1039500028B90020A3E0FEF7D7F9F9E72048626A0A
:10396000204B33F81220B0FBF2F3656805EB4501FC
:10397000994200F28780B3EB053F00F28580002674
:1039800033463146FCF72CFC090241EA1061000283
:103990006B08C0182A46334641F10001FCF720FCB1
:1039A000A0F54072104B9A4270D82368D860304618
:1039B00075E0082A6CD8DFE802F01939056B3C6B1A
:1039C0006B6B1D00064815E0F369FFCF00800040D7
:1039D000003801400044004000480040004C0040D6
:1039E0000024F400C0550008FFFC0F00FEF7D2FAD7
:1039F00000284FD0626A304B33F81230B0FBF3F03E
:103A00006268530803EB4003B3FBF2F3A3F1100128
:103A10004FF6EF7291423FD89AB222F00F02C3F3F1
:103A2000420313432268D360002038E0FEF7C4FA53
:103A3000DEE7FEF769F9DBE7204802E0FEF7AAFAC5
:103A4000B0B3626A1C4B33F81230B0FBF3F063681A
:103A500000EB5300B0FBF3F0A0F110024FF6EF7350
:103A60009A4227D8236880B2D860002017E0FEF77A
:103A7000A3FAE5E7FEF748F9E2E74FF40040E0E794
:103A800001200CE001200AE0012008E0012006E00E
:103A9000012004E0002002E0012000E001200123D9
:103AA000A4F86A30A4F8683000236367A36770BD88
:103AB0000020F4E70120F2E7C05500080024F400DC
:103AC000836A13F0080F06D00268536823F400439A
:103AD000816B0B435360836A13F0010F06D00268B9
:103AE000536823F40033C16A0B435360836A13F0B5
:103AF000020F06D00268536823F48033016B0B4336
:103B00005360836A13F0040F06D00268536823F4ED
:103B10008023416B0B435360836A13F0100F06D070
:103B20000268936823F48053C16B0B439360836AEC
:103B300013F0200F06D00268936823F40053016C41
:103B40000B439360836A13F0400F0AD002685368F6
:103B500023F48013416C0B435360436CB3F5801F17
:103B60000BD0836A13F0800F06D00268536823F4E9
:103B70000023C16C0B43536070470268536823F401
:103B8000C003816C0B435360EBE72DE9F843054616
:103B90000E4617469946DDF820802B68DC6936EA28
:103BA00004040CBF01240024BC4236D1B8F1FF3F0D
:103BB000F3D0FDF705FEA0EB0900404530D8B8F181
:103BC000000F2FD02B681A6812F0040FE5D0802E5A
:103BD000E3D0402EE1D0DA6912F0080F11D1DA6992
:103BE00012F4006FD9D04FF400621A622846FFF732
:103BF000D0FB2023C5F89030002385F884300320C3
:103C00000CE008241C622846FFF7C3FBC5F890406F
:103C1000002385F88430012000E00020BDE8F8830F
:103C20000320FBE70320F9E730B583B00446002307
:103C3000C0F89030FDF7C4FD05462268126812F006
:103C4000080F10D123681B6813F0040F28D120231C
:103C5000C4F88830C4F88C300020E066206784F80F
:103C6000840003B030BD6FF07E4300930346002212
:103C70004FF400112046FFF788FF0028E2D02268A9
:103C800052E8003F23F0800342E800310029F6D1DA
:103C90002023C4F88830002384F884300320E0E730
:103CA0006FF07E4300932B4600224FF480012046A4
:103CB000FFF76BFF0028CAD0226852E8003F23F4C8
:103CC000907342E800310029F6D1226802F108031E
:103CD00053E8003F23F00103083242E80031002995
:103CE000F3D12023C4F88C30002384F884300320DF
:103CF000B7E778B310B50446D0F888300BB3242367
:103D0000C4F888302268136823F001031360A36AA3
:103D1000E3B92046FFF738FD012811D02268536827
:103D200023F4904353602268936823F02A0393603E
:103D30002268136843F0010313602046FFF774FF05
:103D400010BD80F88430FCF789FFD8E72046FFF7E4
:103D5000B7FEDEE701207047436E2BB90123A0F8C0
:103D60006A30A0F86830704730B403689A68C2F3CC
:103D700042629968490F094D6B5CDB00084C615C3D
:103D800093FBF1F3A0F86A30AB5CDB00A25C93FB21
:103D9000F2F3A0F8683030BC704700BFE05500086F
:103DA000D855000870477047704790F88430012B51
:103DB00018D0012380F884302423C0F888300368A9
:103DC0001A68196821F00101196022F000520023DD
:103DD000436601680A602022C0F8882080F8843099
:103DE000184670470220704738B590F88430012B90
:103DF0001DD00446012380F884302423C0F8883085
:103E000003681D681A6822F001021A60026893684C
:103E100023F0604319439160FFF79EFF23681D6004
:103E20002023C4F88830002084F8840038BD0220A4
:103E3000FCE738B590F88430012B1DD004460123EF
:103E400080F884302423C0F8883003681D681A681D
:103E500022F001021A600268936823F0606319433C
:103E60009160FFF779FF23681D602023C4F8883034
:103E7000002084F8840038BD0220FCE7034AD2F811
:103E8000883043F47003C2F88830704700ED00E0DA
:103E900000F1080343604FF0FF328260C3600361AA
:103EA00000230360704700230361704743684B6041
:103EB0009A688A6051609960086103680133036001
:103EC000704730B40D68B5F1FF3F11D000F1080321
:103ED0001C465B681A68AA42FAD963684B6099600D
:103EE0008C606160086103680133036030BC704717
:103EF0000469F2E70369416882688A604168516039
:103F00005A68824206D0002202611A68013A1A6099
:103F10001868704782685A60F5E710B5044601F0EA
:103F200009F8A26BE36B9A4204D0002401F024F854
:103F3000204610BD0124F9E770B504461546866B8E
:103F4000026C5AB903681BB100200136A66370BD2C
:103F5000806800F0C9FD0023A360F6E76DB94068F2
:103F600001F064F96368226C13446360A2689342B1
:103F700019D3236863602846E7E7C06801F056F963
:103F8000E368226C51429B1AE3602268934202D29A
:103F9000A3680B44E360022D01D00020D5E726B1D1
:103FA000013E0020D1E72846CFE70020CDE738B515
:103FB000054600F0BFFF95F8454064B201E0013CC2
:103FC00064B2002C0ADD6B6A43B105F1240000F0F5
:103FD000DFFC0028F3D000F071FDF0E7FF2385F847
:103FE000453000F0C9FF00F0A5FF95F8444064B2E9
:103FF00001E0013C64B2002C0ADD2B6943B105F1FC
:10400000100000F0C5FC0028F3D000F057FDF0E7E9
:10401000FF2385F8443000F0AFFF38BD38B5E0B17C
:104020000D46044600F086FF2368E26B216C01FB1D
:104030000230A0600020A0636360013A02FB0133FC
:10404000E360FF2384F8443084F84530FDB92369E8
:1040500063B900F091FF012038BD4FF0500383F3A6
:104060001188BFF36F8FBFF34F8FFEE704F110008D
:1040700000F08EFC0028ECD04FF0E0234FF080528F
:10408000C3F8042DBFF34F8FBFF36F8FE1E704F147
:104090001000FFF7FDFE04F12400FFF7F9FED8E75A
:1040A00010B5034602980C4631B90060C36304643E
:1040B0000121FFF7B3FF10BD0260F7E740B94FF0F1
:1040C000500383F31188BFF36F8FBFF34F8FFEE769
:1040D000F0B583B00C461546064601FB00F04830AB
:1040E00000F0FEFD074638B100902B4600F1480273
:1040F00021463046FFF7D4FF384603B0F0BDF0B597
:1041000085B0019288B10F461D460446B1B1022D1B
:1041100020D1E36B012B1DD04FF0500383F31188A6
:10412000BFF36F8FBFF34F8FFEE74FF0500383F362
:104130001188BFF36F8FBFF34F8FFEE7036C002B27
:10414000E5D04FF0500383F31188BFF36F8FBFF3B7
:104150004F8FFEE700F0B8FC064658B9019B002BD4
:1041600048D04FF0500383F31188BFF36F8FBFF334
:104170004F8FFEE700263DE02A4639462046FFF7EE
:10418000DBFE636A7BB948B14FF0E0234FF0805209
:10419000C3F8042DBFF34F8FBFF36F8F00F0ECFE19
:1041A000012005B0F0BD04F1240000F0F1FB00286F
:1041B000F4D04FF0E0234FF08052C3F8042DBFF34A
:1041C0004F8FBFF36F8FE9E700F0D6FE0020E8E7DE
:1041D00002A800F023FC012619E0002384F84430F3
:1041E00021E0002384F8453023E02046FFF7DFFE7E
:1041F00000F0C8FA00F09EFEA26BE36B9A42BBD3BC
:10420000022DB9D0019B002BDED0002EE0D000F0B3
:10421000B3FE00F023FA00F08DFE94F8442052B271
:10422000B2F1FF3FD9D094F8452052B2B2F1FF3F2E
:10423000D7D000F0A1FE01A902A800F0FBFBD8B97D
:104240002046FFF76AFE0028CFD0019904F1100044
:1042500000F086FB2046FFF7AAFE00F093FA002844
:10426000C8D14FF0E0234FF08052C3F8042DBFF3C4
:104270004F8FBFF36F8FBDE72046FFF798FE00F02A
:1042800081FA00208DE70000084B1B681B6823B9EA
:10429000074B4FF0FF321A607047044B1B68DB6816
:1042A000DB685A68024B1A60704700BF1C0600208A
:1042B000B405002010B50446006B00F093FD2046C5
:1042C00000F090FD10BD2DE9F04707469846089D87
:1042D000DDF824900A9C266B02F18042013A06EB3D
:1042E000820626F00706C1B308464FF0000CBCF169
:1042F0000F0F09D810F80C2004EB0C0383F83420BE
:1043000012B10CF1010CF2E7002384F84330062DC2
:1043100000D90625E56265644FF0000AC4F848A09C
:10432000201DFFF7C0FD04F11800FFF7BCFD24615C
:10433000C5F10705A5616462C4F84CA084F850A0DB
:1043400042463946304600F0C9FD2060B9F1000F01
:1043500001D0C9F80040BDE8F087002384F834306C
:10436000D5E7000038B5002407E004EB8402930091
:104370000E481844FFF78CFD0134062CF5D90C4D7E
:104380002846FFF785FD0B4C2046FFF781FD0A48C4
:10439000FFF77EFD0948FFF77BFD0948FFF778FD31
:1043A000084B1D60084B1C6038BD00BF480600204C
:1043B000340600202006002004060020F00500201E
:1043C000D80500201C0600201806002010B5044661
:1043D00000F0B0FD214A136801331360204B1B68C5
:1043E0005BB1204B1B686BB91D4B1B68DA6AE36A33
:1043F0009A4207D81A4B1C6004E0194B1C601368E2
:10440000012B28D0184A136801331360E06A012396
:104410008340164A11680B43136000EB8000211D96
:10442000134B03EB8000FFF741FD00F0A5FD0D4BA2
:104430001B687BB10A4B1B68DA6AE36A9A4209D2AD
:104440004FF0E0234FF08052C3F8042DBFF34F8F9D
:10445000BFF36F8F10BDFFF785FFD3E7D4050020B2
:10446000D4060020C8050020B8050020CC05002097
:10447000480600200F4B1B68D3B110B500F05AFD61
:104480000D4BDB68DC68201DFFF734FD0B4A136819
:10449000013B1360074A1368013B136000F06CFD99
:1044A0002046FFF707FF034B1B68002BE6D110BD2A
:1044B000704700BFEC050020F0050020D405002067
:1044C00008B5FFF7D7FF074B1B68012BF9D94FF051
:1044D000E0234FF08052C3F8042DBFF34F8FBFF39A
:1044E0006F8FEEE74806002070B504460D461D4B61
:1044F0001E681D4B18680430FFF7FCFC48B91A4BC6
:104500001B68DB6A01229A4018490B6823EA020300
:104510000B60B4F1FF3F0DD03444134B1B685C605B
:10452000A64210D9124B18680F4B19680431FFF7D7
:10453000C8FC70BD002DEFD00B4B196804310D483D
:10454000FFF7B4FCF5E70C4B1868074B196804310A
:10455000FFF7B7FC094B1B68A342EAD9074B1C6065
:10456000E7E700BFD0050020D4060020CC050020DE
:1045700018060020D80500201C060020B4050020E5
:104580002DE9F04385B007460E4614461D469000BF
:1045900000F0A6FBF8B18146542000F0A1FB804654
:1045A00098B1C0F830900023039302900D9B0193C3
:1045B0000C9B00932B46224631463846FFF783FE7C
:1045C0004046FFF703FF012007E0484600F00AFCE1
:1045D0004FF0FF3001E04FF0FF3005B0BDE8F08351
:1045E00000B583B0174B0193002300938022164936
:1045F0001648FFF7C5FF012805D0B0F1FF3F17D0DF
:1046000003B05DF804FB4FF0500383F31188BFF350
:104610006F8FBFF34F8F0E4B4FF0FF321A600D4B71
:1046200001221A600C4B00221A6000F01DFDE7E722
:104630004FF0500383F31188BFF36F8FBFF34F8F99
:10464000FEE700BFB0050020B8550008C1440008CF
:10465000B4050020C8050020D0050020024A1368D8
:1046600001331360704700BFAC050020F8B53A4B2A
:104670001B68002B69D1394B1D6801351D60C5B918
:10468000374B1B681B6843B14FF0500383F311880D
:10469000BFF36F8FBFF34F8FFEE7314A1168314B85
:1046A000186810601960304A136801331360FFF70F
:1046B000EBFD2E4B1B68AB423DD900272C4B1B68F2
:1046C000DB6A03EB83039A002A4B9B58012B00D92A
:1046D0000127294B1B68002B3CD001273AE001271A
:1046E0001F4B1B681B6843B31D4B1B68DB68DC68F2
:1046F00063689D4226D3261D3046FFF7FBFBA36A65
:104700001BB104F11800FFF7F5FBE36A01229A40A0
:104710001A49086802430A6003EB83039A00314692
:1047200014481044FFF7C2FBE26A114B1B68DB6AB6
:104730009A42D4D2D4E70027D2E70C4B4FF0FF3295
:104740001A60BBE7094A1360B8E70D4A13680133E2
:10475000136000273846F8BDAC050020D0050020C6
:104760001C06002018060020BC050020B40500200F
:10477000D406002048060020C0050020CC050020FB
:10478000C405002038B5354B1B6843B94FF05003C2
:1047900083F31188BFF36F8FBFF34F8FFEE700F0F5
:1047A000C9FB2E4B1A68013A1A601B68002B4FD1C7
:1047B0002B4B1B680BB900244BE00024294B1B68D2
:1047C0001BB3284BDB68DC6804F11800FFF792FB91
:1047D000251D2846FFF78EFBE06A01238340224A0D
:1047E00011680B43136000EB800029461F4B03EB5D
:1047F0008000FFF75BFBE26A1D4B1B68DB6A9A4295
:10480000DCD31C4B01221A60D8E70CB1FFF73CFD4A
:10481000194B1C6884B9174B1C68D4B14FF0E023C6
:104820004FF08052C3F8042DBFF34F8FBFF36F8F4B
:1048300001240EE0013C07D0FFF718FF0028F9D053
:104840000C4B01221A60F5E70B4B00221A60E2E7DD
:10485000002400F091FB204638BD00BFAC050020CD
:10486000D405002004060020CC05002048060020C6
:10487000D4060020C0050020C405002010B5A8B152
:104880000446104B1B6843B14FF0500383F311886B
:10489000BFF36F8FBFF34F8FFEE7FFF7DFFE0021FF
:1048A0002046FFF721FEFFF76DFF48B94FF0E023E8
:1048B0004FF08052C3F8042DBFF34F8FBFF36F8FBB
:1048C00010BD00BFAC050020204B1B681BB1204B66
:1048D00001221A6070471E4B00221A601D4B1B6894
:1048E000B3FA83F3DBB2C3F11F0303EB83018A0046
:1048F00019498A5842B94FF0500383F31188BFF326
:104900006F8FBFF34F8FFEE7134803EB83018A00DD
:10491000024451684968516003EB830C4FEA8C02F2
:1049200008320244914209D003EB83039A000A4BF8
:1049300013445B68DA68094B1A607047486862463E
:104940009100054A0A445060EEE700BFAC05002024
:10495000C0050020CC05002048060020D406002019
:1049600058B110B50C46094A11681831FFF7A9FA79
:1049700001212046FFF7B8FD10BD4FF0500383F32F
:104980001188BFF36F8FBFF34F8FFEE7D40600206F
:1049900038B5C368DC6824B304F118052846FFF76E
:1049A000A9FA184B1B682BBB251D2846FFF7A2FA56
:1049B000E06A01238340144A11680B43136000EB43
:1049C00080002946114B03EB8000FFF76FFAE26A83
:1049D0000F4B1B68DB6A9A4211D901200D4B1860FE
:1049E00038BD4FF0500383F31188BFF36F8FBFF3CF
:1049F0004F8FFEE729460848FFF758FAE7E70020FF
:104A0000EEE700BFAC050020CC05002048060020E2
:104A1000D4060020C005002004060020034B1B68BC
:104A20000360034B1B684360704700BFBC05002058
:104A3000D0050020E0B170B50C46054609B300F082
:104A400079FA1C4B19686B68C81A2268B2F1FF3FEB
:104A500028D0DFF864C0DCF800C02E68664501D0BD
:104A60008B4224D9824215D80023236001241AE006
:104A70004FF0500383F31188BFF36F8FBFF34F8F55
:104A8000FEE74FF0500383F31188BFF36F8FBFF33E
:104A90004F8FFEE75B1A134423602846FFF7BEFFE3
:104AA000002400E0002400F067FA204670BD0124D5
:104AB000F9E700BFD0050020BC050020014B012212
:104AC0001A607047C0050020054B1B6833B1054BC9
:104AD0001B680BB10020704702207047012070470F
:104AE000C8050020AC05002000284BD038B504468E
:104AF000264B1B68834208D04FF0500383F3118884
:104B0000BFF36F8FBFF34F8FFEE7836C43B94FF056
:104B1000500383F31188BFF36F8FBFF34F8FFEE70E
:104B2000013B8364C16A426C91422DD00BB10020DD
:104B300038BD051D2846FFF7DDF968B9E36A03EBC8
:104B40008302920012498A5832B901229A401149CF
:104B50000B6823EA02030B60606CE062C0F107039C
:104B6000A361012404FA00F30A4A11680B4313609D
:104B700000EB80002946064B03EB8000FFF796F917
:104B80002046D5E7002070470020D1E7D40600205A
:104B900048060020CC050020842801D0033070474F
:104BA0000020704708B5FFF71BFD002008BDF0B5D9
:104BB00085B00C46456806680769B0F90800FFF73C
:104BC000EBFF03AB019300902346BAB2314628466F
:104BD000FFF7D6FC012802D1039805B0F0BD0020F4
:104BE000FBE708B500B90120FFF748FE002008BD2B
:104BF00010B5012902D00024204610BD0322002157
:104C00000120FFF75BFA04460028F5D000231A467E
:104C10001946FFF774FAEFE7124A12F0070F1ED099
:104C2000D11D21F00701C1F5406313440A460E4827
:104C30000260002141601344083B23F007030B4846
:104C4000036059601960991A51601360084B19602C
:104C5000084B1960084B4FF000421A6070474FF440
:104C60004063E4E7F8060020F0060020EC06002090
:104C7000E4060020E8060020D8060020164B1A465D
:104C80001B688342FBD3516802EB010C844509D0B9
:104C9000416800EB010C634509D00360904219D0D4
:104CA000106070474068014451601046F0E710B44E
:104CB0000A4C2468A3420BD05B6819444160136816
:104CC0001B680360904200D010605DF8044B704791
:104CD0000460F7E7704700BFF0060020EC060020F4
:104CE00038B50446FFF7BAFC384B1B68B3B1384BF4
:104CF0001B681C4250D1002C50D004F1080214F063
:104D0000070F02D022F007020832002A55D0314B9B
:104D10001B68934253D330490C6804E0FFF77CFFD3
:104D2000E5E721461C466368934202D22368002BC4
:104D3000F7D1264B1B68A34243D00D680835236882
:104D40000B6063689B1A102B10D9A01810F0070F86
:104D500008D04FF0500383F31188BFF36F8FBFF378
:104D60004F8FFEE743606260FFF788FF6268194972
:104D70000B689B1A0B60194909688B4201D21749CD
:104D80000B60134B1B681343636000232360144ABA
:104D900013680133136002E0002500E00025FFF7EF
:104DA000F1FC15F0070F0ED04FF0500383F311887C
:104DB000BFF36F8FBFF34F8FFEE70025EFE70025AE
:104DC000EDE70025EBE7284638BD00BFEC060020E4
:104DD000D8060020E8060020F0060020E4060020A7
:104DE000E0060020002834D038B50446A0F10805BC
:104DF00050F8043C174A1268134208D14FF0500390
:104E000083F31188BFF36F8FBFF34F8FFEE750F826
:104E1000081C41B14FF0500383F31188BFF36F8F2B
:104E2000BFF34F8FFEE723EA020340F8043CFFF78D
:104E300015FC54F8041C084A13680B4413602846F8
:104E4000FFF71CFF054A136801331360FFF79AFC54
:104E500038BD7047D8060020E8060020DC06002098
:104E600082B0002301930D4B1B68B3F1FF3F08D0C4
:104E70004FF0500383F31188BFF36F8FBFF34F8F51
:104E8000FEE74FF0500383F31188BFF36F8FBFF33A
:104E90004F8F019B002BFCD002B070470C0000200C
:104EA00008480068006880F308884FF0000080F32D
:104EB000148862B661B6BFF34F8FBFF36F8F00DF08
:104EC00000BF000008ED00E0DFF80C00016841F4CD
:104ED000700101607047000088ED00E04FF08073C2
:104EE00040F8043C21F0010140F8081C054B40F853
:104EF0000C3C40F8202C6FF0020340F8243C44386E
:104F0000704700BF614E0008000000000000000074
:104F1000074B19680868B0E8F04F80F30988BFF3C1
:104F20006F8F4FF0000080F311887047AFF300805F
:104F3000D40600204FF0500383F31188BFF36F8F26
:104F4000BFF34F8F0B4A136801331360012B00D05E
:104F500070474FF0E023D3F8043D13F0FF0FF7D074
:104F60004FF0500383F31188BFF36F8FBFF34F8F60
:104F7000FEE700BF0C000020094B1B6843B94FF04F
:104F8000500383F31188BFF36F8FBFF34F8FFEE79A
:104F9000013B034A13600BB983F31188704700BFCC
:104FA0000C000020000000000000000000000000D5
:104FB000EFF30980BFF36F8F154B1A681EF0100FC7
:104FC00008BF20ED108A20E9F04F10602DE909009C
:104FD0004FF0500080F31188BFF34F8FBFF36F8FF6
:104FE000FFF772FC4FF0000080F3118809BC1968CC
:104FF0000868B0E8F04F1EF0100F08BFB0EC108A40
:1050000080F30988BFF36F8F704700BFAFF3008054
:10501000D406002008B54FF0500383F31188BFF386
:105020006F8FBFF34F8FFFF721FB28B14FF0E023C5
:105030004FF08052C3F8042D002383F3118808BD7C
:105040004FF0E022002313619361054B1B68054973
:10505000A1FB03139B09013B5361072313617047B5
:1050600008000020D34D62104FF0E023D3F8002D4C
:105070003D4B9A421CD04FF0E023D3F8002D3B4B20
:105080009A421ED030B583B0394B1A78D2B2019211
:10509000FF221A701B78DBB28DF803309DF80330C5
:1050A00003F05003334A1370334B07221A601BE09E
:1050B0004FF0500383F31188BFF36F8FBFF34F8F0F
:1050C000FEE74FF0500383F31188BFF36F8FBFF3F8
:1050D0004F8FFEE7284A1368013B13609DF80330A9
:1050E0005B00DBB28DF803309DF8033013F0800FC6
:1050F000F0D1214B1B68032B08D04FF0500383F3F2
:105100001188BFF36F8FBFF34F8FFEE71B021A4A60
:10511000136003F4E0631360019BDBB2144A137065
:105120004FF0E024D4F8203D43F47003C4F8203D50
:10513000D4F8203D43F07043C4F8203DFFF780FFD2
:1051400000250E4B1D60FFF7BFFED4F8343F43F03F
:105150004043C4F8343FFFF7A3FEFFF7B5FBFFF76A
:105160007FFE284603B030BD71C20F4170C20F41AF
:1051700000E400E0FC120020F81200200C000020E7
:105180000D488546FEF77AFE0C480D490D4A00236E
:1051900002E0D458C4500433C4188C42F9D30A4AEC
:1051A0000A4C002301E013600432A242FBD300F05A
:1051B00019F8FBF7BAF8FEE7008000200000002095
:1051C00010000020105600081000002000130020DE
:1051D000FEE702440346934200D1704703F8011BE7
:1051E000F9E7000070B50D4B0D4D5B1B9C100026C0
:1051F000A64209D100F0A4F90A4D0B4B5B1B9C1091
:105200000026A64205D170BD55F8043B98470136EB
:10521000EEE755F8043B98470136F2E708560008D8
:1052200008560008085600080C5600080A44914227
:1052300000F1FF3300D1704710B511F8014B03F8AE
:10524000014F9142F9D110BD2DE9F047089D0F465D
:1052500004468C46002B48D18A42164661D9B2FAE0
:1052600082F34BB1C3F1200201FA03FC20FA02F2EF
:105270009E4042EA0C0C9C404FEA164EB7B2BCFB73
:10528000FEF1220C0EFB11CC42EA0C4201FB07F0AE
:10529000904209D9B21801F1FF3C80F0EE809042B3
:1052A00040F2EB8002393244121AA4B2B2FBFEF093
:1052B0000EFB102244EA024400FB07F7A74209D97B
:1052C000341900F1FF3280F0DA80A74240F2D78033
:1052D0003444023840EA0140E41B00211DB1DC40A7
:1052E0000023C5E90043BDE8F0878B4206D90DB124
:1052F000C5E9000100210846BDE8F087B3FA83F153
:10530000002948D1BB4202D3824200F20781841AAD
:1053100067EB030201209446002DE4D0C5E9004C60
:10532000E1E7002A00F09280B2FA82F3002B40F00D
:10533000A8808A1A4FEA164E1FFA86FC0121200C1B
:10534000B2FBFEF70EFB172240EA02420CFB07F00D
:10535000904207D9B21807F1FF3802D2904200F20A
:10536000E2804746121AA4B2B2FBFEF00EFB1022F6
:1053700044EA02440CFB00FCA44507D9341900F1AF
:10538000FF3202D2A44500F2CB801046A4EB0C04FD
:1053900040EA0740A2E7C1F120068B4022FA06FC52
:1053A0004CEA030C07FA01F420FA06F3F7404FEA3F
:1053B0001C49234300FA01F81FFA8CFEB7FBF9F0F1
:1053C0001C0C09FB107744EA074400FB0EF7A742C8
:1053D00002FA01F20AD91CEB040400F1FF3A80F052
:1053E0009B80A74240F2988002386444E41B9FB23D
:1053F000B4FBF9F309FB134447EA044403FB0EFE34
:10540000A64509D91CEB040403F1FF3780F0828024
:10541000A6457FD9023B644443EA0040A4EB0E0456
:10542000A0FB02E7BC427346B94663D360D05DB1CE
:10543000B8EB030264EB090404FA06F622FA01F35E
:105440001E43CC40C5E9006400214CE762084808CF
:1054500042EAC1710B0C43EA00438AB242EA0342BA
:10546000B3FBF6F1E407B4463746B6461F23B0FB5C
:10547000F6F0D21B41EA004161E7614614E71046AD
:1054800028E7C3F1200120FA01F29E4027FA01F13A
:105490009F403A434FEA164E1FFA86FCB1FBFEF7D7
:1054A0000EFB1710110C41EA004107FB0CF8884570
:1054B00004FA03F43AD9711807F1FF3001D2884594
:1054C0001FD8A1EB0801B1FBFEF808FB0CF70EFB9F
:1054D000181192B242EA0142BA422FD2B21808F130
:1054E000FF31C6D2BA42C4D2A8F102013244C0E7A9
:1054F000F0459CD2BEEB020367EB0C070138B946BE
:1055000095E7A6EB08084144B81EB1FBFEF808FB7E
:105510000CF7DCE73B467FE7504667E70846FBE6CB
:105520003444023832E7023F32441BE7A1EB080162
:105530003846B1FBFEF808FB0CF7C8E7414698E790
:10554000F8B500BFF8BC08BC9E467047F8B500BF70
:08555000F8BC08BC9E46704740
:10555800AC5500084D0400080000000000000000E1
:1055680080000000A455000857040008FDFF000053
:105578000000000080000000945500086104000845
:10558800FDFF0000000000008000000053656E640D
:105598005F5265635F6D7367000000004C6364537E
:1055A800686F770064656661756C745461736B002D
:1055B80049444C45000000000100020004000600B8
:1055C80008000A000C0010002000400080000001C4
:1055D8000804020408010101010101030701000098
:1055E80000000000010203040000000000000000A9
:0855F800010203040607080983
:0856000048FCFF7F01000000DF
:045608007D02000817
:04560C00550200083B
:1056100001000000100000000024F400AAAAAAAAB9
:04000005080051811D
:00000001FF
